:100000000C9463000C948B000C948B000C948B006C
:100010000C948B000C948B000C948B000C948B0034
:100020000C948B000C948B000C948B000C948B0024
:100030000C948B000C948B000C948B000C948B0014
:100040000C94A4030C948B000C9472030C944C033A
:100050000C948B000C948B000C948B000C948B00F4
:100060000C948B000C948B000000000024002700EF
:100070002A0000000000250028002B0000000000DE
:1000800023002600290004040404040404040202DA
:100090000202020203030303030301020408102007
:1000A0004080010204081020010204081020000012
:1000B0000008000201000003040700000000000027
:1000C00000002A04C90611241FBECFEFD8E0DEBF0E
:1000D000CDBF22E0A4E3B1E001C01D92A230B2077F
:1000E000E1F711E0A0E0B1E0E4E8F2E102C0059040
:1000F0000D92A433B107D9F710E0C2E6D0E004C0F6
:100100002197FE010E943D07C136D107C9F70E9421
:100110003B050C9435090C9400000895AF92BF92F2
:10012000CF92DF92EF92FF920F931F93CF93DF93C3
:100130006C017B018B01040F151FEB015E01AE18F2
:10014000BF08C017D10759F06991D601ED91FC9114
:100150000190F081E02DC6010995892B79F7C50141
:10016000DF91CF911F910F91FF90EF90DF90CF9093
:10017000BF90AF900895FC01538D448D252F30E042
:10018000842F90E0821B930B541710F0CF960895A4
:1001900001970895FC01918D828D981761F0A28DD1
:1001A000AE0FBF2FB11D5D968C91928D9F5F9F7397
:1001B000928F90E008958FEF9FEF0895FC01918D4D
:1001C000828D981731F0828DE80FF11D858D90E0BA
:1001D00008958FEF9FEF0895FC01918D228D892F57
:1001E00090E0805C9F4F821B91098F73992708953F
:1001F0008DE391E00E94EC0021E0892B09F420E0DE
:10020000822F089580E090E0892B29F00E94F80069
:1002100081110C9400000895FC01A48DA80FB92F42
:10022000B11DA35ABF4F2C91848D90E001968F731E
:100230009927848FA689B7892C93A089B1898C913D
:10024000837080648C93938D848D981306C002888C
:10025000F389E02D80818F7D80830895EF92FF9256
:100260000F931F93CF93DF93EC0181E0888F9B8DD9
:100270008C8D98131AC0E889F989808185FF15C093
:100280009FB7F894EE89FF896083E889F9898081B6
:100290008370806480839FBF81E090E0DF91CF9185
:1002A0001F910F91FF90EF900895F62E0B8D10E0A7
:1002B0000F5F1F4F0F731127E02E8C8D8E110CC016
:1002C0000FB607FCFACFE889F989808185FFF5CF61
:1002D000CE010E940C01F1CFEB8DEC0FFD2FF11D33
:1002E000E35AFF4FF0829FB7F8940B8FEA89FB899E
:1002F00080818062CFCFCF93DF93EC01888D8823FC
:10030000B9F0AA89BB89E889F9898C9185FD03C078
:10031000808186FD0DC00FB607FCF7CF8C9185FF5D
:10032000F2CF808185FFEDCFCE010E940C01E9CF95
:10033000DF91CF910895833081F028F4813099F0D6
:100340008230A9F008958730A9F08830C9F0843050
:10035000B1F4809180008F7D03C0809180008F7701
:1003600080938000089584B58F7784BD089584B507
:100370008F7DFBCF8091B0008F778093B000089580
:100380008091B0008F7DF9CF1F93CF93DF93282FFB
:1003900030E0F901E255FF4F8491F901E656FF4F35
:1003A000D491F901EA57FF4FC491CC23A9F0162F3D
:1003B00081110E949B01EC2FF0E0EE0FFF1FEE5821
:1003C000FF4FA591B4918FB7F894EC91111108C02B
:1003D000D095DE23DC938FBFDF91CF911F910895DD
:1003E000DE2BF8CFCF93DF9390E0FC01E656FF4F72
:1003F00024918A579F4FFC0184918823D1F090E08B
:10040000880F991FFC01E859FF4FA591B491FC0199
:10041000EE58FF4FC591D491623071F49FB7F894B4
:100420003C91822F809583238C93E8812E2B288307
:100430009FBFDF91CF9108958FB7F894EC912E2B49
:100440002C938FBFF6CF3FB7F894809139019091EC
:100450003A01A0913B01B0913C0126B5A89B05C093
:100460002F3F19F00196A11DB11D3FBFBA2FA92F33
:10047000982F8827BC01CD01620F711D811D911D30
:1004800042E0660F771F881F991F4A95D1F708959C
:1004900090E080E00895CF93DF93EC0160E08E81DF
:1004A0000E94C40161E08E810E94C40160E08E81DF
:1004B0000E94C4018BE891E00197F1F7DF91CF91A1
:1004C0000895CF92DF92EF92FF920F931F93CF93F5
:1004D000DF936C017C0187E0E80EF11CD0E0C0E006
:1004E000062F10E0B8010C2E02C0759567950A948E
:1004F000E2F76170F70181917F010E94C4012196AA
:10050000C430D10579F7C601DF91CF911F910F91CA
:10051000FF90EF90DF90CF900C944B02CF92DF9240
:10052000EF92FF920F931F93CF93DF93EC01F62E80
:10053000642F8C810E94C4018D818F3F19F060E08F
:100540000E94C4010F2D10E08F8584FF25C06E012D
:1005500087E0C80ED11CF12CE12CB8010E2C02C092
:10056000759567950A94E2F76170F60181916F01C4
:100570000E94C401FFEFEF1AFF0A88E0E816F104B9
:1005800061F7CE01DF91CF911F910F91FF90EF9016
:10059000DF90CF900C944B02B80184E0759567957D
:1005A0008A95E1F7CE010E9461026F2DCE01DF91A5
:1005B000CF911F910F91FF90EF90DF90CF900C940F
:1005C000610240E0682F8AED91E00C948E0281E098
:1005D0000E94E1028BE39FE10197F1F7089590916A
:1005E000ED01891710F08FEF890FE82FF0E0E65248
:1005F000FE4F848980680C94E10241E00E948E02E3
:1006000081E090E00895CF93DF93FC014481558110
:10061000608171818DE391E00E948E00EC0142E0E7
:1006200050E064E271E08DE391E00E948E008C0F57
:100630009D1FDF91CF910895FC01808191810097EA
:1006400011F00C94DF0708950F931F93CF93DF935E
:10065000EC0188819981009759F02A813B81261706
:10066000370730F081E0DF91CF911F910F9108950E
:100670008B016F5F7F4F0E946808009759F0998344
:1006800088831B830A832C813D81232B59F7FC012E
:100690001082E8CF80E0E7CF1F920F920FB60F9243
:1006A00011242F933F934F935F936F937F938F9377
:1006B0009F93AF93BF93EF93FF938DE391E00E94DD
:1006C0000C01FF91EF91BF91AF919F918F917F911D
:1006D0006F915F914F913F912F910F900FBE0F90AF
:1006E0001F9018951F920F920FB60F9211242F93FF
:1006F0008F939F93EF93FF93E0914D01F0914E0103
:100700008081E0915301F091540182FD1BC09081E2
:10071000809156018F5F8F7320915701821741F0AE
:10072000E0915601F0E0E35CFE4F958F8093560117
:10073000FF91EF919F918F912F910F900FBE0F908E
:100740001F9018958081F4CF1F920F920FB60F92D1
:1007500011242F933F938F939F93AF93BF938091D7
:10076000350190913601A0913701B0913801309157
:10077000340123E0230F2D3758F50196A11DB11D3B
:10078000209334018093350190933601A093370173
:10079000B09338018091390190913A01A0913B01C9
:1007A000B0913C010196A11DB11D80933901909338
:1007B0003A01A0933B01B0933C01BF91AF919F914F
:1007C0008F913F912F910F900FBE0F901F90189512
:1007D00026E8230F0296A11DB11DD2CFEF92FF9202
:1007E0000F931F93CF93DF93EC017B011982188243
:1007F0001B821A821D821C82FB0101900020E9F7F6
:1008000031978F01061B170BB8010E942403288122
:100810003981811113C02115310519F0C9010E94D8
:10082000DF07198218821D821C821B821A82DF91C7
:10083000CF911F910F91FF90EF9008951D830C832E
:10084000B701C901DF91CF911F910F91FF90EF90F8
:100850000C942E09CF93DF931092400110923F0128
:1008600088EE93E0A0E0B0E08093410190934201D4
:10087000A0934301B09344018AE091E090933E013C
:1008800080933D0185EC90E090934A01809349016B
:1008900084EC90E090934C0180934B0180EC90E0CD
:1008A00090934E0180934D0181EC90E09093500124
:1008B00080934F0182EC90E090935201809351011C
:1008C00086EC90E09093540180935301109256016E
:1008D00010925701109258011092590167E271E08D
:1008E00088EF91E00E94EE0366E271E082EF91E012
:1008F0000E94EE031092DD011092DC018CE191E088
:100900009093DB018093DA018CE08093DE018FEF1E
:100910008093DF018BE08093E00185E08093E1012B
:1009200084E08093E20183E08093E30182E080939E
:10093000E4011092E5011092E6011092E701109295
:10094000E8011092E90181E08093ED011092EE013F
:1009500080E48093EF0180E18093F00180E5809353
:10096000F10161E08CE00E94F2018091DF018F3F94
:1009700019F061E00E94F20161E08091E0010E94C3
:10098000F201CAEDD1E09E012A5D31408091E9017A
:1009900084FD0BC084E090E021962817390744F4C9
:1009A00061E08E810E94F201EECF88E090E0F4CF0A
:1009B0008BE39DE00197F1F760E08091DE010E94FA
:1009C000C40160E08091E0010E94C4018091DF01D8
:1009D0008F3F19F060E00E94C4018091E90184FD1D
:1009E00034C063E08AED91E00E946102CBE4D6E47A
:1009F000CE010197F1F763E08AED91E00E94610278
:100A00002197F1F763E08AED91E00E94610283E5AE
:100A100092E00197F1F762E08AED91E00E946102B5
:100A20008091E90180620E94E10284E08093EA0102
:100A30008CE00E94E1020E94E70282E08093EB01D9
:100A400086E0DF91CF910C94E10280620E94E10286
:100A50008BE496E40197F1F78091E90180620E94AE
:100A6000E10283E592E00197F1F78091E90180626C
:100A70000E94E102D5CFCF93DF93CDB7DEB7689761
:100A80000FB6F894DEBF0FBECDBF789484B58260F8
:100A900084BD84B5816084BD85B5826085BD85B522
:100AA000816085BD80916E00816080936E001092A0
:100AB000810080918100826080938100809181001B
:100AC00081608093810080918000816080938000AC
:100AD0008091B10084608093B1008091B00081600A
:100AE0008093B00080917A00846080937A00809136
:100AF0007A00826080937A0080917A00816080938E
:100B00007A0080917A00806880937A001092C10008
:100B1000E0914D01F0914E0182E08083E091490126
:100B2000F0914A011082E0914B01F0914C018FEC61
:100B3000808310925501E0915101F091520186E0BD
:100B40008083E0914F01F09150018081806180832A
:100B5000E0914F01F0915001808188608083E091A5
:100B60004F01F0915001808180688083E0914F01B6
:100B7000F091500180818F7D808362E08EE00E9441
:100B8000F2018E010F5F1F4F28EA222E20E0322E45
:100B900034E9E32E30E0F32E40E0C42E40E0D42EC2
:100BA00080E00E94EF0245E050E06DE271E08AEDE6
:100BB00091E00E948E0081E00E94EF028DE391E0BF
:100BC0000E94EC00892B09F460C08DE391E00E9443
:100BD000CA001C8A1B8A1E8A1D8A188E1F8A4AE038
:100BE000B8010E94D106F80101900020E9F7319781
:100BF0005F01A01AB10AB501CE0143960E942403F9
:100C00002B893C89811187C02115310519F0C90153
:100C10000E94DF071C8A1B8A188E1F8A1E8A1D8A63
:100C20008091F2019091F301009709F47DC06B89E6
:100C30007C896115710509F475C04091F4015091EA
:100C4000F5012F89388D4217530708F46BC00E94B5
:100C50002E098F89988D9093F7018093F601188E55
:100C60001F8ACE0143960E941C0382EF91E00E94EE
:100C700003034091F6015091F7016091F2017091E8
:100C8000F3018AED91E00E948E00ECEBF0E084919C
:100C9000F101B490F701A490A1105DC00E94E70299
:100CA00088EF91E00E94030381E00E94EF024091EF
:100CB000FC015091FD016091F8017091F9018AEDFC
:100CC00091E00E948E000E9423024B015C0194EF90
:100CD000492E55245394612C712C0E9423026819CB
:100CE00079098A099B09683E734081059105A8F33B
:100CF000F1E04F1A51086108710828EE820E23E0D6
:100D0000921EA11CB11C411451046104710429F705
:100D10000E94E7022FC0B88EAF8AB801C9010E94B5
:100D20002E097ECF0E94DF078B899C899093F30167
:100D30008093F2018D899E899093F5018093F4014F
:100D40008F89988D9093F7018093F6011C8A1B8AF6
:100D50001E8A1D8A84CF81110E949B01EA2DF0E03A
:100D6000EE0FFF1FE458FF4FA591B4918C91B8226C
:100D700009F494CF81E00E94EF02C114D10409F478
:100D80000FCF0E94F800882309F40ACF0E940000C8
:100D900007CF82EF91E00E941C0388EF91E00C9452
:100DA0001C03BB274A3031F4992322F4BDE290950D
:100DB00081959F4F0C94DD06BB27FB015527AA2781
:100DC000880F991FAA1FA41710F0A41B83955051D8
:100DD000B9F7A05DAA3308F0A95DA193009779F750
:100DE000B111B1931192CB010C94F606DC01FC0118
:100DF000672F71917723E1F7329704C07C916D934F
:100E000070836291AE17BF07C8F308952F923F9287
:100E10004F925F926F927F928F929F92AF92BF920A
:100E2000CF92DF92EF92FF920F931F93CF93DF93B6
:100E3000CDB7DEB7CA1BDB0B0FB6F894DEBF0FBE13
:100E4000CDBF09942A88398848885F846E847D8460
:100E50008C849B84AA84B984C884DF80EE80FD8062
:100E60000C811B81AA81B981CE0FD11D0FB6F894D8
:100E7000DEBF0FBECDBFED010895EE0FFF1F059041
:100E8000F491E02D09940F931F93CF93DF93823059
:100E9000910510F482E090E0E0910002F0910102EF
:100EA00030E020E0B0E0A0E0309799F42115310562
:100EB00009F44AC0281B390B24303105D8F58A8142
:100EC0009B816115710589F1FB0193838283FE018A
:100ED00011C0408151810281138148175907E0F008
:100EE0004817590799F4109761F012960C931297CE
:100EF00013961C933296CF01DF91CF911F910F91E2
:100F000008950093000210930102F4CF21153105DA
:100F100051F04217530738F0A901DB019A01BD01D6
:100F2000DF01F801C1CFEF01F9CF90930102809367
:100F30000002CDCFFE01E20FF31F81939193225067
:100F4000310939832883D7CF2091FE013091FF01E9
:100F5000232B41F420910201309103013093FF01D2
:100F60002093FE01209100013091010121153105EE
:100F700041F42DB73EB74091040150910501241B67
:100F8000350BE091FE01F091FF01E217F307A0F4A9
:100F90002E1B3F0B2817390778F0AC014E5F5F4FCF
:100FA0002417350748F04E0F5F1F5093FF01409301
:100FB000FE01819391939FCFF0E0E0E09CCFCF932F
:100FC000DF930097E9F0FC01329713821282A0911F
:100FD0000002B0910102ED0130E020E01097A1F491
:100FE00020813181820F931F2091FE013091FF01FA
:100FF0002817390709F061C0F093FF01E093FE0163
:10100000DF91CF910895EA01CE17DF07E8F54A8115
:101010005B819E0141155105B1F7E901FB83EA832C
:1010200049915991C40FD51FEC17FD0761F48081D8
:1010300091810296840F951FE901998388838281AB
:1010400093819B838A83F0E0E0E012968D919C91DE
:1010500013970097B9F52D913C911197CD01029608
:10106000820F931F2091FE013091FF01281739074D
:1010700039F6309751F51092010210920002B093A8
:10108000FF01A093FE01BCCFD383C2834081518175
:10109000840F951FC817D90761F44E5F5F4F888191
:1010A0009981480F591F518340838A819B81938383
:1010B00082832115310509F0B0CFF0930102E0934E
:1010C00000029ECFFD01DC01C0CF13821282D7CF78
:1010D000B0E0A0E0EEE6F8E00C9408078C01009781
:1010E00051F4CB010E9443078C01C801CDB7DEB794
:1010F000E0E10C942407FC01E60FF71F9C0122504D
:101100003109E217F30708F49DC0D901CD91DC91B4
:101110001197C617D70798F0C530D10530F3CE0127
:1011200004978617970708F3C61BD70B2297C1931E
:10113000D1936D937C93CF010E94DF07D6CF5B01E3
:10114000AC1ABD0A4C018C0E9D1EA0910002B091FC
:101150000102512C412CF12CE12C109731F580919A
:10116000FE019091FF018815990509F05CC04616B3
:10117000570608F058C08091000190910101009736
:1011800041F48DB79EB74091040150910501841B35
:10119000950BE817F90708F055C0F093FF01E093AD
:1011A000FE01F90171836083A0CF8D919C9111970D
:1011B00012966C90129713967C901397A815B90508
:1011C00059F56C0142E0C40ED11CCA14DB0420F1B5
:1011D000AC014A195B09DA011296159780F0628218
:1011E000738251834083D9016D937C93E114F104A0
:1011F00071F0D7011396FC93EE93129776CF229657
:101200008C0F9D1FF90191838083F301EFCFF09341
:101210000102E093000269CF4816590608F42C0138
:101220007D01D3019ACFCB010E9443077C01009737
:1012300049F0AE01B8010E942509C8010E94DF07EC
:10124000870153CF10E000E050CFFB01DC0102C06A
:1012500001900D9241505040D8F70895FB01DC01F8
:1012600001900D920020E1F7089510E0C2E6D0E071
:1012700004C0FE010E943D072196C336D107C9F77D
:04128000F894FFCF10
:10128400000002028000000000002E018E00BB005E
:101294007B01EC00CA00DE0000000000FD028E00AD
:1012A40048028D000D0A004B45444950004B4952F9
:0412B400494D0000A0
:00000001FF
